:100000000C9435010C9466010C9466010C94660105
:100010000C9466010C9466010C9466010C946601C4
:100020000C9466010C9466010C9466010C946601B4
:100030000C9466010C9466010C9466010C946601A4
:100040000C9466010C9466010C9466010C94660194
:100050000C9466010C9466010C9466010C94550591
:100060000C9466010C94C9050C949F050C946601D0
:100070000C9466010C9466010C9466010C94660164
:100080000C9466010C9466010C9466010C94660154
:100090000C9466010C9466010C9466010C94660144
:1000A0000C9466010C9466010C9466010C94660134
:1000B0000C9466010C9466010C9466010C94660124
:1000C0000C9466010C9466010C9466010C94660114
:1000D0000C9466010C9466010C9466010C94660104
:1000E0000C9466010C94B9010C94AB010C94B5020C
:1000F0000C94C6010C94A1010C943A030C94BD011C
:100100000C94C1010C948C010C94CB010C94B301A0
:100110000C9457020C9490010C94C7010C94930218
:100120000C9484020C9494010C94AF010C949B01E8
:100130000C9415080C94A7020C94A5010C94ED02E4
:100140000C9486010C9498010000210024002700E3
:100150002A002D00300033000101000004010701D6
:100160000A0100002200250028002B002E0031008B
:10017000340002010000050108010B01000020000D
:100180002300260029002C002F003200000100006F
:10019000030106010901050505050705080808080A
:1001A000020202020A0A080804040404010101010F
:1001B000010101010303030303030303040707070A
:1001C0000C0C0C0C0C0C0C0C0202020206060606AF
:1001D000060606060B0B0B0B0B0B0B0B010210207C
:1001E000200808102040102040800201020108046D
:1001F0000201010204081020408080402010080401
:100200000201800402018040201008040201080459
:10021000020101020408102040800102040810209D
:10022000408000000A0B02090C0D0E0807030401B0
:1002300000000000000000000000000000000000BE
:10024000000000000000000000000000000012118B
:10025000100000000000000000000000000000008E
:100260000000000000000000150811241FBECFEFA1
:10027000D1E2DEBFCDBF00E00CBF12E0A0E0B2E0F3
:10028000E6EAF2E100E00BBF02C007900D92A03851
:10029000B107D9F72FE1A0E8B2E001C01D92AA335F
:1002A000B207E1F711E0C5E3D1E000E006C0219715
:1002B0000109802FFE010E944909C433D10780E063
:1002C0000807A9F70E94FF050C9451090C9400003F
:1002D0008150823108F05AC0E82FF0E08827EC58AE
:1002E000FE4F8F4F0C9449099401980186018C01AF
:1002F0009001C6019B01A101A501AB01AF01B301B2
:10030000B901BD01C601C101C701CB0180918000C7
:100310008F77809380000895809180008F7DF9CF42
:1003200080918000877FF5CF84B58F7784BD089555
:1003300084B58F7DFBCF8091B0008F778093B00024
:1003400008958091B0008F7DF9CF809190008F77D4
:10035000809390000895809190008F7DF9CF8091D7
:100360009000877FF5CF8091A0008F778093A000C9
:1003700008958091A0008F7DF9CF8091A000877FA4
:10038000F5CF809120018F7780932001089580918F
:1003900020018F7DF9CF80912001877FF5CFCF930A
:1003A000DF93282F30E0F901EE5DFD4F8491F901D4
:1003B000E452FE4FD491F901EA56FE4FC491CC238A
:1003C000A1F081110E946801EC2FF0E0EE0FFF1FF9
:1003D000E458FE4FA591B491EC91ED2381E090E0BB
:1003E00009F480E0DF91CF91089580E090E0FACFAA
:1003F0001F93CF93DF93282F30E0F901EE5DFD4F7F
:100400008491F901E452FE4FD491F901EA56FE4F6E
:10041000C491CC23A9F0162F81110E946801EC2F02
:10042000F0E0EE0FFF1FEE59FE4FA591B4918FB78C
:10043000F894EC91111108C0D095DE23DC938FBFA6
:10044000DF91CF911F910895DE2BF8CFCF93DF93EB
:1004500090E0FC01E452FE4F24918A569E4FFC012D
:1004600084918823D1F090E0880F991FFC01E85B0C
:10047000FE4FA591B491FC01EE59FE4FC591D49168
:1004800061110EC09FB7F8948C91E22FE0958E23F6
:100490008C932881E223E8839FBFDF91CF91089559
:1004A0008FB7F894EC91E22BEC938FBFF6CFAF921D
:1004B000BF92CF92DF92EF92FF920F931F93CF9351
:1004C000DF936C017B018B01040F151FEB015E01B3
:1004D000AE18BF08C017D10759F06991D601ED9148
:1004E000FC910190F081E02DC6011995892B79F7D7
:1004F000C501DF91CF911F910F91FF90EF90DF9099
:10050000CF90BF90AF900895FC01538D448D252F5F
:1005100030E0842F90E0821B930B541710F0CF969D
:10052000089501970895FC01918D828D981761F0CF
:10053000A28DAE0FBF2FB11D5D968C91928D9F5FE6
:100540009F73928F90E008958FEF9FEF0895FC01C5
:10055000918D828D981731F0828DE80FF11D858D78
:1005600090E008958FEF9FEF0895FC01918D228D0B
:10057000892F90E0805C9F4F821B91098F73992790
:1005800008958DE99EE10E94B50221E0892B09F4CE
:1005900020E0822F0895FC01A48DA80FB92FB11D72
:1005A000A35ABF4F2C91848D90E001968F739927A9
:1005B000848FA689B7892C93A089B1898C91837087
:1005C00080648C93938D848D981306C00288F38980
:1005D000E02D80818F7D80830895EF92FF920F93AD
:1005E0001F93CF93DF93EC0181E0888F9B8D8C8DDF
:1005F00098131AC0E889F989808185FF15C09FB7D3
:10060000F894EE89FF896083E889F9898081837095
:10061000806480839FBF81E090E0DF91CF911F9144
:100620000F91FF90EF900895F62E0B8D10E00F5F65
:100630001F4F0F731127E02E8C8D8E110CC00FB63B
:1006400007FCFACFE889F989808185FFF5CFCE01D3
:100650000E94CB02F1CFEB8DEC0FFD2FF11DE35A81
:10066000FF4FF0829FB7F8940B8FEA89FB89808156
:100670008062CFCFCF93DF93EC01888D8823B9F0D0
:10068000AA89BB89E889F9898C9185FD03C080819D
:1006900086FD0DC00FB607FCF7CF8C9185FFF2CF1A
:1006A000808185FFEDCFCE010E94CB02E9CFDF91A3
:1006B000CF91089580E090E0892B29F00E94C1023B
:1006C00081110E94000080E090E0892B49F080E0D9
:1006D00090E0892B29F00E94000081110E94000007
:1006E00080E090E0892B49F080E090E0892B29F0B0
:1006F0000E94000081110E94000080E090E0892BA0
:1007000049F080E090E0892B29F00E9400008111DF
:100710000C940000089561E08DE00E94F80160E013
:100720008DE00C94F8011F93CF93DF93182F682F5F
:10073000617086E10E94F801C12FD0E0BE0175957D
:100740006795617088E10E94F801BE017595679513
:100750007595679561708AE10E94F801BE0123E0FA
:10076000759567952A95E1F761708CE10E94F80113
:10077000BE0134E0759567953A95E1F761708EE1B9
:100780000E94F801BE0145E0759567954A95E1F72D
:10079000617080E20E94F80156E0D595C7955A95A0
:1007A000E1F76C2F617082E20E94F801612F661FF1
:1007B0006627661F84E20E94F8010E948B0387E18E
:1007C0000E94CF01182F89E10E94CF01EC018BE13B
:1007D0000E94CF01CC0FDD1F880F991F880F991F32
:1007E000C82BC12B8DE10E94CF01E3E0880F991F38
:1007F000EA95E1F7C82B8FE10E94CF01F4E0880F62
:10080000991FFA95E1F7C82B81E20E94CF01A5E07C
:10081000880F991FAA95E1F7C82B83E20E94CF01A8
:10082000B6E0880F991FBA95E1F7C82B85E20E94C0
:10083000CF019695982F8827979587958C2BDF91D8
:10084000CF911F9108951F93CF93DF93182F682F97
:10085000617086E10E94F801C12FD0E0BE0175955C
:100860006795617088E10E94F801BE0175956795F2
:100870007595679561708AE10E94F801BE0123E0D9
:10088000759567952A95E1F761708CE10E94F801F2
:10089000BE0134E0759567953A95E1F761708EE198
:1008A0000E94F801BE0145E0759567954A95E1F70C
:1008B000617080E20E94F80156E0D595C7955A957F
:1008C000E1F76C2F617082E20E94F801612F661FD0
:1008D0006627661F84E20E94F801DF91CF911F9185
:1008E0000C948B03FC0101900020E9F73197AF01D4
:1008F000481B590BBC018DE99EE10C9457028F9265
:100900009F92AF92BF920F931F93CF93DF93CDB778
:10091000DEB7A1970FB6F894DEBF0FBECDBF19A208
:10092000423008F44AE08E010F5D1F4F842E912C57
:10093000B12CA12CA50194010E941809E62FB90140
:10094000CA01EA30F4F4E05DD801EE938D01232B67
:10095000242B252B79F790E080E0109719F0CD013A
:100960000E947204A1960FB6F894DEBF0FBECDBFF1
:10097000DF91CF911F910F91BF90AF909F908F907B
:100980000895E95CE1CFCF92DF92EF92FF92CF938F
:10099000DF936B017C016DE28DE99EE10E94ED0227
:1009A000EC0166277727CB016C197D098E099F0919
:1009B0004AE00E947F048C0F9D1FDF91CF91FF9032
:1009C000EF90DF90CF900895CF93DF930E94720451
:1009D000EC0186E192E00E9472048C0F9D1FDF9172
:1009E000CF91089589E192E00E94E4042FB7F89432
:1009F0008091991E90919A1EA0919B1EB0919C1E71
:100A00002FBF8093800290938102A0938202B093C3
:100A100083020895CF93C82F803120F488E292E0BA
:100A20000E9472046C2F70E090E080E040E1CF9172
:100A30000C947F048FB7F8944091991E50919A1EA0
:100A400060919B1E70919C1E8FBF8091800290913F
:100A50008102A0918202B0918302841B950BA60BA8
:100A6000B70B8093800290938102A0938202B0938F
:100A700083028AE292E00E94720460918002709187
:100A80008102809182029091830297FF07C0909526
:100A90008095709561957F4F8F4F9F4F4AE00E94E0
:100AA0007F0486E192E00C9472041F920F920FB6BD
:100AB0000F9211242F933F938F939F93AF93BF93E4
:100AC0008091991E90919A1EA0919B1EB0919C1EA0
:100AD0003091981E23E0230F2D3758F50196A11D64
:100AE000B11D2093981E8093991E90939A1EA093F7
:100AF0009B1EB0939C1E8091941E9091951EA09178
:100B0000961EB091971E0196A11DB11D8093941E53
:100B10009093951EA093961EB093971EBF91AF9190
:100B20009F918F913F912F910F900FBE0F901F902B
:100B3000189526E8230F0296A11DB11DD2CF1F9252
:100B40000F920FB60F9211240BB60F922F933F9373
:100B50004F935F936F937F938F939F93AF93BF93C5
:100B6000EF93FF938DE99EE10E94CB02FF91EF91FD
:100B7000BF91AF919F918F917F916F915F914F91B5
:100B80003F912F910F900BBE0F900FBE0F901F90B3
:100B900018951F920F920FB60F9211240BB60F9259
:100BA0002F938F939F93EF93FF93E091AD1EF0915E
:100BB000AE1E8081E091B31EF091B41E82FD1DC077
:100BC00090818091B61E8F5F8F732091B71E821720
:100BD00041F0E091B61EF0E0E356F14E958F809320
:100BE000B61EFF91EF919F918F912F910F900BBEA9
:100BF0000F900FBE0F901F9018958081F2CF7894C0
:100C000084B5826084BD84B5816084BD85B5826011
:100C100085BD85B5816085BD80916E0081608093C2
:100C20006E0010928100809181008260809381002B
:100C3000809181008160809381008091800081603B
:100C4000809380008091B10084608093B100809196
:100C5000B00081608093B0008091910082608093A9
:100C6000910080919100816080939100809190002B
:100C70008160809390008091A10082608093A100A8
:100C80008091A10081608093A1008091A00081608B
:100C90008093A00080912101826080932101809146
:100CA00021018160809321018091200181608093E6
:100CB000200180917A00846080937A0080917A008C
:100CC000826080937A0080917A00816080937A00BC
:100CD00080917A00806880937A001092C10061E070
:100CE00086E10E94260261E088E10E94260261E01E
:100CF0008AE10E94260261E08CE10E94260261E006
:100D00008EE10E94260261E080E20E94260261E0FC
:100D100082E20E94260261E084E20E94260260E0F4
:100D200087E10E94260260E089E10E94260260E0DD
:100D30008BE10E94260260E08DE10E94260260E0C5
:100D40008FE10E94260260E081E20E94260260E0BC
:100D500083E20E94260260E085E20E94260261E0B2
:100D60008DE00E94260260E086E10E94F80160E0CA
:100D700088E10E94F80160E08AE10E94F80160E0E9
:100D80008CE10E94F80160E08EE10E94F80160E0D1
:100D900080E20E94F80160E082E20E94F80160E0D7
:100DA00084E20E94F80160E08DE00E94F801E09189
:100DB000AD1EF091AE1E82E08083E091A91EF091FD
:100DC000AA1E1082E091AB1EF091AC1E8FEC8083C6
:100DD0001092B51EE091B11EF091B21E86E08083A4
:100DE000E091AF1EF091B01E808180618083E09120
:100DF000AF1EF091B01E808188608083E091AF1EAD
:100E0000F091B01E808180688083E091AF1EF091E8
:100E1000B01E80818F7D808389E392E00E94E4048C
:100E200085E492E00E9472044AE060E07CE180E0A8
:100E300090E00E947F0486E192E00E94720480911B
:100E40007B00877F80937B0080E480937C0080918F
:100E50007A00806480937A0080917A0086FDFCCFCE
:100E60008091780060917900762F682F072E000C12
:100E7000880B990B611571058105910511F00E9490
:100E8000DD080E94F2048AE592E00E94720484E880
:100E9000C82E8EE1D82E03E91EE1E601812C912CAB
:100EA000540193940E948E08A50194010E94E608C3
:100EB000862F69930E940A0580E692E00E947204E0
:100EC0000C171D0779F70E948E08A50194010E9456
:100ED000E608862F6093931E0E940A0586E192E041
:100EE0000E9472040E941A050E94F20482E692E0B7
:100EF0000E94E40461E08CE00E94F80104E91EE134
:100F0000C4E8DEE189910E9423040C171D07D1F784
:100F100060E08CE00E94F80161E08BE00E94F80143
:100F20000E948B0360E08BE00E94F80161E08AE0A0
:100F30000E94F80180E00E94230460E08AE00E94A1
:100F4000F80161E08AE00E94F80104E812E058012B
:100F5000F12CE12C8E2D0E949303F50181935F010A
:100F6000FFEFEF1AFF0AE1148CE1F80699F760E051
:100F70008AE00E94F8010E941A050E94F2048EE69F
:100F800092E00E94E40461E08CE00E94F801F60126
:100F900081916F010E942304CC15DD05C1F760E04B
:100FA0008CE00E94F80161E08BE00E94F8010E9451
:100FB0008B0360E08BE00E94F80161E08AE00E9410
:100FC000F80180E00E94230460E08AE00E94F801BA
:100FD00061E08AE00E94F801C12CD12C7601F80171
:100FE00081918F010E9493038C1549F04AE0C7015B
:100FF000B6010E947F0486E192E00E947204FFEF36
:10100000CF1ADF0AEF0AFF0AC1148CE1D806E10407
:10101000F10429F760E08AE00E94F8010E941A05B5
:101020008AE792E00E94E404FFCFEDE9FEE113823B
:10103000128288EE93E0A0E0B0E084839583A683DB
:10104000B78388E092E09183808385EC90E0958778
:10105000848784EC90E09787868780EC90E0918B82
:10106000808B81EC90E0938B828B82EC90E0958B6F
:10107000848B86EC90E0978B868B118E128E138E6C
:10108000148E08958F929F92AF92BF92CF92DF926B
:10109000EF92FF92CF93DF93EC01688179818A818F
:1010A0009B81611571058105910521F464E279ED5B
:1010B0008BE597E02DE133EF41E050E00E94E60838
:1010C00049015A019B01AC01A7EAB1E40E9405095C
:1010D0006B017C01ACEEB4EFA50194010E941309F1
:1010E000C60ED71EE81EF91EF7FE06C081E0C81A1C
:1010F000D108E10880E8F80AC882D982EA82FB8236
:10110000C701B6019F77DF91CF91FF90EF90DF90FD
:10111000CF90BF90AF909F908F9008958F929F92A5
:10112000AF92BF92CF92DF92EF92FF926091000256
:101130007091010280910202909103026115710584
:101140008105910521F464E279ED8BE597E02DE1CD
:1011500033EF41E050E00E94E60849015A019B014B
:10116000AC01A7EAB1E40E9405096B017C01ACEE79
:10117000B4EFA50194010E941309C60ED71EE81E04
:10118000F91EF7FE06C081E0C81AD108E10880E820
:10119000F80AC0920002D0920102E0920202F0929C
:1011A0000302C701B6019F77FF90EF90DF90CF90C9
:1011B000BF90AF909F908F900895609300027093BE
:1011C000010280930202909303020895052E97FB7B
:1011D0001EF400940E94FD0857FD07D00E941809D4
:1011E00007FC03D04EF40C94FD08509540953095C3
:1011F00021953F4F4F4F5F4F089590958095709583
:1012000061957F4F8F4F9F4F08950E943A09A59F88
:10121000900DB49F900DA49F800D911D11240895F1
:10122000B7FF0C9405090E940509821B930B0895D2
:10123000A1E21A2EAA1BBB1BFD010DC0AA1FBB1FDA
:10124000EE1FFF1FA217B307E407F50720F0A21B4C
:10125000B30BE40BF50B661F771F881F991F1A94B9
:1012600069F760957095809590959B01AC01BD01E3
:10127000CF010895A29FB001B39FC001A39F700D3D
:10128000811D1124911DB29F700D811D1124911D8E
:101290000895EE0FFF1F881F8BBF0790F691E02D7A
:0612A0001994F894FFCF41
:1012A6000100000000000000ED02570284023A032C
:1012B600B5029302A7020D0A0054696D65722053A8
:1012C6007461727465642E00300054696D65204542
:1012D6006C61707365643A2000537461727465645E
:1012E6002075702100546578742053616D706C65AB
:1012F600204C656E6774683A20004B65793A200089
:101306003A00456E6372797074696E672E004465A3
:101316006372797074696E672E00446F6E65210082
:00000001FF
